:1000000012C02CC02BC02AC029C028C027C026C0BF
:1000100025C024C023C022C021C020C01FC01EC0D4
:100020001DC01CC01BC011241FBECFE5D4E0DEBF25
:10003000CDBF11E0A0E6B0E0E4EEFDE002C0059027
:100040000D92AC34B107D9F721E0ACE4B1E001C0C6
:100050001D92AE34B207E1F73BD0C2C6D1CF369A7B
:10006000349BFECF349A84B195B123E09695879561
:100070002A95E1F70895A89590914C01943028F4C1
:100080009F5F90934C0180E013C010924C0181114E
:1000900001C0E5DF90914D01981720F49F3798F744
:1000A0009F5F03C0992379F3915090934D01EBCF5B
:1000B00090914D01981708F4AB988F5F92E09A9554
:1000C000F1F700C08436A1F7AB9A80914D010895F5
:1000D000CF93DF93CDB7DEB767970FB6F894DEBF47
:1000E0000FBECDBF8EE0E0E6F0E0EE24E394F12C0D
:1000F000EC0EFD1ED70101900D928A95E1F788E084
:10010000EEE6F0E0DE011F9601900D928A95E1F790
:100110008CE387BB88E084BB82EE81BB83E088BB35
:1001200080E785BB84E082BB82E487B981E886B939
:100130002FE088E190E00FB6F894A89580934100F5
:100140000FBE209341002BD12DD2BE01615F7F4FA6
:1001500080E0D1D180E090E01AD1182F81E090E0CA
:1001600016D1D82E20D180ED27D18EE025D180E088
:1001700023D180E021D11DD116D18EE91DD180E09F
:100180001BD117D100E0C12C5E2C4F2C2AE0622E2F
:10019000A89509D18FE910D116D1282E1BD1382E60
:1001A00008D101D180ED08D180E006D1FCD081EDED
:1001B00003D109D1F82E07D1B82E05D1A82E03D12D
:1001C000782E01D1882EFFD0E82E04D1982EF1D0C0
:1001D000DD2049F0FC1003C0002331F001C00CE326
:1001E0000150CF2C01C001E0412F60E880E0F9D040
:1001F000E52DF42DE70DF11DE70DF11D3297212FAF
:1002000040E060E88081918101D1412F60E281E08E
:10021000E8D0412F60E281E0E4D0412F60E281E04C
:10022000E0D0682D62956370605D412F81E0D9D088
:10023000682D6F70605D412F81E0D3D0412F6FE258
:1002400081E0CFD0E4FA662760F9605D412F81E05C
:10025000C8D06E2D6F70605D412F81E0C2D0412FFC
:100260006FE281E0BED0412F62E381E0BAD06E2D13
:10027000661F6627661F605D412F81E0B2D0692D41
:1002800062956F70605D412F81E0ABD0692D6F701A
:10029000605D412F81E0A5D0412F60EC80E0A1D0CE
:1002A0006A2D62956370605D412F81E09AD06A2D5E
:1002B0006F70605D412F81E094D0412F002311F0D9
:1002C0006AE301C060E281E08CD06B2D62956F70B3
:1002D000605D412F81E085D06B2D6F70605D412F97
:1002E00081E07FD0412F002311F06AE301C060E27A
:1002F00081E077D06F2D62956F70605D412F81E056
:1003000070D06F2D6F70605D412F81E06AD0412FFA
:1003100060E281E066D0412F60E281E062D0822D10
:10032000662D52D5682F605D412F81E09F8B59D09B
:100330009F89692F605D412F81E053D0412F6EE28C
:1003400081E04FD0412F37FE02C065E301C060E37A
:1003500081E047D0412F60E081E043D0412F63E44A
:1003600081E03FD0989B14CF2AD180E090E00FD05D
:10037000182F81E090E00BD0D82E0ACFA895E199F4
:10038000FECF9FBB8EBB6DBBE29AE19A0895A89504
:10039000E199FECF9FBB8EBBE09A8DB3089511B853
:1003A00081E080B9089584EA86BF06B607FEFDCFD6
:1003B000089584E986BF089583B984E886BF06B6A8
:1003C00007FEFDCF089584EC86BF06B607FEFDCF7D
:1003D00083B1089584E886BF06B607FEFDCF83B1DA
:1003E0000895882311F0959A01C09598962F9295BB
:1003F0009F70990F990F98BB979A97986F70660F97
:10040000660F68BB979A9798842F35CEDF92EF924C
:10041000FF920F931F93CF93DF93082FF92ED42EC3
:10042000122F61111AC0C82FD92F11C0412F6E2D64
:1004300081E0D7DFDD2059F00E2D0E5C06C0A895B7
:10044000812F19DE812F17DE01500111F8CF0C2FFB
:10045000FD2EE990E110EACF05C0603831F4412F5C
:1004600080E0BFDFC02FDF2D13C0603CD9F7F7CF8E
:10047000412F602F81E0B5DFDD2051F00E5C06C01A
:10048000A895812FF8DD812FF6DD01500111F8CFFD
:1004900009910111EDCFDF91CF911F910F91FF9045
:1004A000EF90DF9008951F93CF93DF931F92CDB706
:1004B000DEB7162F6AE088D4682F605D412F81E097
:1004C00099838FDF9981692F605D412F81E00F90C3
:1004D000DF91CF911F9185CFCF93DF93D82F482FF6
:1004E00061E080E07EDFC8EC8D2FC5DDC150E1F713
:1004F000DF91CF910895EF92FF921F93CF93DF93F7
:100500001F92CDB7DEB7162F8830B0F4682F660F74
:10051000660F660F605C40E080E0798362DFE12E69
:100520007981F72E10E0F70161917F0140E081E0D1
:1005300058DF1F5F1830B9F70F90DF91CF911F91EF
:10054000FF90EF9008958CE388BB8FE39CE90197BF
:10055000F1F700C000008CE088BB979A9798EFE114
:10056000FEE43197F1F700C0000088BB979A979896
:10057000EFECF7E03197F1F700C0000088BB979AE5
:1005800097988FEC97E00197F1F700C0000088E0A2
:1005900088BB979A9798EFECF7E03197F1F700C096
:1005A00000000895D0DF40E068E280E01ADF40E01C
:1005B0006CE080E016DF40E066E080E012CF4F9212
:1005C0005F926F927F928F929F92AF92BF92CF92E3
:1005D000DF92EF92FF920F931F93CF93DF93CDB7EC
:1005E000DEB76A970FB6F894DEBF0FBECDBF8EE0C0
:1005F000E6E7F0E0DE01119601900D928A95E1F7B1
:100600008CE0E4E8F0E0DE011F9601900D928A95FF
:10061000E1F7A89580E090E0BADEF82E81E090E066
:10062000B6DEA82EC0DE80EDC7DE81E0C5DEBBDE13
:1006300081EDC2DEC8DE682EC6DEC82EC4DEE82E1E
:10064000C2DED82EC0DE082FC5DE182FB2DE8F2DF9
:1006500012DD862D82958F702FE062223AE0839F13
:10066000600C11249C2D9695969596959670592E12
:10067000550C550C590E8C2D8F70580E9D2D96953E
:10068000969596959670992E990C990C990E8D2D9C
:100690008F70980E04FB992790F9990FD92EDD0CD5
:1006A000DD0CD90E0F70D00E912F92959F70812F77
:1006B0008F70EAE09E9F800D11241AE0612F84D391
:1006C000782E892EB82EC92EA8958F2D05DF4F2D97
:1006D0006FE080E086DE2F2D41E060E88CEA90E05C
:1006E00095DEF11007C020E041E060EC8DEB90E07A
:1006F0008DDE0BC02F2D41E060EC8AEC90E086DEB1
:100700008F2D612F61D36F2DCEDE2AE0422E8F2DEB
:10071000B2DCA895999B32C0F3E6FF1518F02AE0E9
:10072000F20E01C0F12C4F2D6CE080E05ADE4F2D0F
:1007300068EC80E056DE2F2D40E068EC86E291E028
:1007400065DE4F2D68EC80E04CDE4F2D6FE080E0E1
:1007500048DEF11007C020E041E060E085EC90E069
:1007600055DE05C08F2D642D2FD36F2D9CDE00E24A
:1007700013E08F2D80DC01501109D9F7989BC7CF6A
:100780004F2D6CE080E02DDE8F2DA6DEF11007C02E
:1007900020E040E060E88DEB90E038DE0BC02F2DCC
:1007A00040E060E88AEC90E031DE8F2D6AE00CD307
:1007B0006F2D79DE4F2D6FE080E013DE2F2D41E0AD
:1007C00060ECAA2019F083ED90E002C083EE90E087
:1007D0001DDE8F2D50DCA895999B2AC081E0A110C9
:1007E00080E0A82E4F2D6CE080E0FBDD4F2D60E116
:1007F00080E0F7DD4F2D60E180E0F3DD4F2D60E11B
:1008000080E0EFDD4F2D6FE080E0EBDD2F2D41E04C
:1008100060E0AA2019F08FED90E002C08FEE90E02A
:10082000F5DD00E213E08F2D26DC01501109D9F728
:10083000989BCFCF4F2D6CE080E0D3DD8F2D4CDE29
:100840002F2D40E060E8AA2019F083ED90E002C06F
:1008500083EE90E0DBDD4F2D6FE080E0C2DD2F2DD9
:1008600041E060EC83EF90E0D1DD6F2D852D1BDE44
:100870008F2D01DCA895999B20C036E1351510F02D
:10088000539401C0512C4F2D6CE080E0AADD4F2D18
:1008900060E180E0A6DD4F2D60E180E0A2DD4F2D1C
:1008A0006FE080E09EDD6F2D852DFDDD00E213E021
:1008B0008F2DE1DB01501109D9F7989BD9CF4F2D2E
:1008C0006CE080E08EDD8F2D07DE2F2D40E060E8AC
:1008D00083EF90E09BDD6F2D852DE5DD4F2D6FE0E3
:1008E00080E07FDD2F2D41E060EC8BEF90E08EDD2E
:1008F0006F2D862DD8DD8F2DBEDBA895999B20C04E
:100900008AE3861510F0639401C0612C4F2D6CE0D2
:1009100080E067DD4F2D60E180E063DD4F2D60E119
:1009200080E05FDD4F2D6FE080E05BDD6F2D862D79
:10093000BADD00E213E08F2D9EDB01501109D9F7DB
:10094000989BD9CF4F2D6CE080E04BDD8F2DC4DD1F
:100950002F2D40E060E88BEF90E058DD6F2D862D65
:10096000A2DD2AE0852D622F2FD2192FE0E18E9F84
:10097000100D1124862D28D2092FF0E18F9F000D34
:10098000112411DD80ED18DD81E016DD802F14DDEE
:10099000812F12DD0EDD4F2D60EC80E022DD4F2D2A
:1009A0006FE080E01EDD2F2D41E060EC85E091E0FE
:1009B0002DDD6F2D8D2D77DD8F2D5DDBA895999B1E
:1009C00021C02BE02D1510F0D39402C0DD24D39468
:1009D0004F2D6CE080E005DD4F2D60E180E001DD12
:1009E0004F2D60E180E0FDDC4F2D6FE080E0F9DC11
:1009F0006F2D8D2D58DD00E213E08F2D3CDB015073
:100A00001109D9F7989BD8CF4F2D6CE080E0E9DC35
:100A10008F2D62DD2F2D40E060E885E091E0F6DC6F
:100A20006F2D8D2D40DD4F2D60EC80E0DADC4F2DF9
:100A30006FE080E0D6DC2F2D41E060EC8BE091E0B0
:100A4000E5DC4F2D6CE080E0CCDC8F2D45DD2F2DDB
:100A500040E060E88BE091E0D9DC4F2D60EC80E075
:100A6000C0DC4F2D6FE080E0BCDCEE2DF0E0319774
:100A7000EE0FFF1F8E010F5F1F4FE00FF11F2F2D95
:100A800041E060EC80819181C1DC602E512E8F2D80
:100A9000F2DAA895999B29C036E03E1510F0E39450
:100AA00002C0EE24E3944F2D6CE080E09ADC2F2D01
:100AB00040E060EC8AE191E0A9DC4F2D6FE080E03E
:100AC00090DCE62DF52DEE0DF11DEE0DF11D3297AA
:100AD0002F2D41E060EC8081918198DC04EF11E0E2
:100AE0008F2DC9DA01501109D9F7989BD0CF4F2D1E
:100AF0006CE080E076DC8F2DEFDCFE01EE0DF11D69
:100B0000EE0DF11D32972F2D40E060E8818192813A
:100B10007DDC4F2D60EC80E064DC4F2D6FE080E0E9
:100B200060DC2F2D41E060EC8BE291E06FDC4D2C1E
:100B3000512CFE01E40DF51D6784961408F4692C10
:100B40006F2D862DB0DC8E01025F1F4F040D151D29
:100B50008F2D91DAA895999B25C0F80180816816A0
:100B600010F4639402C0662463944F2D6CE080E01F
:100B700038DC4F2D60E180E034DC4F2D60E180E017
:100B800030DC4F2D6FE080E02CDC6F2D862D8BDC70
:100B900080E2482E83E0582E8F2D6DDAF1E04F1A57
:100BA0005108D1F7989BD4CF4F2D6CE080E019DC31
:100BB0008F2D92DC2F2D40E060E88BE291E026DC67
:100BC0006F2D862D70DC4F2D60EC80E00ADC4F2D00
:100BD0006FE080E006DC2F2D41E060EC88E391E0DF
:100BE00015DC4F2D60E381E0FCDB4F2D60E180E000
:100BF000F8DB912C8F2D3FDAA895999B14C081E0EA
:100C0000911080E0982E682F605D4F2D81E0E9DB28
:100C10004F2D60E180E0E5DB00E213E08F2D2BDA61
:100C200001501109D9F7989903C0E4CF8F2D23DA29
:100C30009899FCCF4F2D64E180E0D3DB672D605D98
:100C40004F2D81E0CEDB4F2D60E180E0CADB8F2DA0
:100C500012DAA895999B16C028E02B1510F0B394D2
:100C600001C0B12C6B2D605D4F2D81E0BADB4F2DA3
:100C700060E180E0B6DB00E213E08F2DFCD901508B
:100C80001109D9F7989903C0E2CF8F2DF4D998991B
:100C9000FCCF4F2D64E180E0A4DB682D605D4F2D1B
:100CA00081E09FDB4F2D60E180E09BDB8F2DE3D95E
:100CB000A895999B16C039E0C31611F0C39401C0E2
:100CC000C12C6C2D605D4F2D81E08BDB4F2D60E1E1
:100CD00080E087DB00E213E08F2DCDD901501109B0
:100CE000D9F7989BE3CF4F2D6CE080E07ADB8F2D16
:100CF000F3DB2F2D40E060E888E391E087DB692D8E
:100D0000605D4F2D81E06DDB6B2D605D4F2D81E0CF
:100D100068DB6C2D605D4F2D81E063DB4F2D60EC57
:100D200080E05FDB4F2D6FE080E05BDB2F2D41E04B
:100D300060EC8FE391E06ADB2AE0862D622F44D0DD
:100D4000092FE0E18E9F000D11248D2D3DD0192F2C
:100D5000F0E18F9F100D112420E8929E10191124AC
:100D600030E1B39EC00C11241EDB80ED25DB83E057
:100D700023DB8E2D21DB802F1FDB812F1DDB8C2DB4
:100D80001BDB17DB6F2D80E090E0F8DA6A2D81E045
:100D900090E0F4DA4F2D6CE080E06A960FB6F8949C
:100DA000DEBF0FBECDBFDF91CF911F910F91FF909E
:100DB000EF90DF90CF90BF90AF909F908F907F90FB
:100DC0006F905F904F900DCB991B79E004C0991FF5
:100DD000961708F0961B881F7A95C9F78095089595
:040DE000F894FFCFB5
:100DE4009000940098009C00A000A400A800040AAD
:100DF4000400000000009000940098009C00A000F3
:100E0400A400A8001F1C1F1E1F1E1F1F1E1F1E1F25
:100E1400444F4D005345470054455200515541003D
:100E2400515549005345580053414200436F6E6683
:100E34006967206520616A7573746573004272691D
:100E44006C686F3A204175746F004272696C686F08
:100E54003A200050697363617220283A293A20537A
:100E6400696D0050697363617220283A293A204EF3
:100E7400616F00486F7261733A20004D696E75743A
:100E84006F733A20004D65733A2000446961206411
:100E9400612073656D616E613A002020202020205E
:100EA400202020202020202020200044696120646C
:100EB4006F206D65733A2000416E6F3A2032005600
:0C0EC4006F6C74616E646F2E2E2E0000A7
:00000001FF
